{
  "contractName": "ApartmentContract",
  "abi": [
    {
      "inputs": [],
      "payable": false,
      "stateMutability": "nonpayable",
      "type": "constructor"
    },
    {
      "constant": false,
      "inputs": [
        {
          "name": "_postCode",
          "type": "uint32"
        },
        {
          "name": "_city",
          "type": "string"
        },
        {
          "name": "_street",
          "type": "string"
        },
        {
          "name": "_houseNumber",
          "type": "uint32"
        },
        {
          "name": "_floor",
          "type": "uint32"
        },
        {
          "name": "_description",
          "type": "string"
        },
        {
          "name": "_rent",
          "type": "uint32"
        },
        {
          "name": "_deposit",
          "type": "uint32"
        }
      ],
      "name": "createApartment",
      "outputs": [],
      "payable": false,
      "stateMutability": "nonpayable",
      "type": "function"
    },
    {
      "constant": false,
      "inputs": [
        {
          "name": "_apartmentId",
          "type": "uint32"
        },
        {
          "name": "_transactionMessage",
          "type": "string"
        }
      ],
      "name": "createTransaction",
      "outputs": [],
      "payable": false,
      "stateMutability": "nonpayable",
      "type": "function"
    },
    {
      "constant": true,
      "inputs": [],
      "name": "getApartmentIds",
      "outputs": [
        {
          "name": "",
          "type": "uint32[]"
        }
      ],
      "payable": false,
      "stateMutability": "view",
      "type": "function"
    },
    {
      "constant": true,
      "inputs": [],
      "name": "getRentedApartments",
      "outputs": [
        {
          "name": "",
          "type": "uint32[]"
        }
      ],
      "payable": false,
      "stateMutability": "view",
      "type": "function"
    },
    {
      "constant": true,
      "inputs": [
        {
          "name": "apartmentId",
          "type": "uint32"
        }
      ],
      "name": "getApartmentById",
      "outputs": [
        {
          "name": "_id",
          "type": "uint32"
        },
        {
          "name": "_owner",
          "type": "address"
        },
        {
          "name": "_tenant",
          "type": "address"
        },
        {
          "name": "_postCode",
          "type": "uint32"
        },
        {
          "name": "_city",
          "type": "string"
        },
        {
          "name": "_street",
          "type": "string"
        },
        {
          "name": "_houseNumber",
          "type": "uint32"
        },
        {
          "name": "_floor",
          "type": "uint32"
        },
        {
          "name": "_description",
          "type": "string"
        },
        {
          "name": "_rent",
          "type": "uint32"
        },
        {
          "name": "_deposit",
          "type": "uint32"
        },
        {
          "name": "_isRented",
          "type": "bool"
        }
      ],
      "payable": false,
      "stateMutability": "view",
      "type": "function"
    },
    {
      "constant": true,
      "inputs": [
        {
          "name": "apartmentId",
          "type": "uint32"
        }
      ],
      "name": "getTransactionIds",
      "outputs": [
        {
          "name": "",
          "type": "uint32[]"
        }
      ],
      "payable": false,
      "stateMutability": "view",
      "type": "function"
    },
    {
      "constant": true,
      "inputs": [
        {
          "name": "transactionId",
          "type": "uint32"
        }
      ],
      "name": "getTransactionById",
      "outputs": [
        {
          "name": "_id",
          "type": "uint32"
        },
        {
          "name": "_apartmentId",
          "type": "uint32"
        },
        {
          "name": "_message",
          "type": "string"
        },
        {
          "name": "_timestamp",
          "type": "uint256"
        }
      ],
      "payable": false,
      "stateMutability": "view",
      "type": "function"
    },
    {
      "constant": false,
      "inputs": [
        {
          "name": "_apartmentId",
          "type": "uint32"
        }
      ],
      "name": "updateApartment",
      "outputs": [],
      "payable": false,
      "stateMutability": "nonpayable",
      "type": "function"
    },
    {
      "constant": false,
      "inputs": [
        {
          "name": "_apartmentId",
          "type": "uint32"
        },
        {
          "name": "_message",
          "type": "string"
        }
      ],
      "name": "terminateContract",
      "outputs": [],
      "payable": false,
      "stateMutability": "nonpayable",
      "type": "function"
    }
  ],
  "bytecode": "0x608060405260008060006101000a81548163ffffffff021916908363ffffffff16021790555034801561003157600080fd5b50611a5b806100416000396000f300608060405260043610610099576000357c0100000000000000000000000000000000000000000000000000000000900463ffffffff168063098b72b51461009e57806334745e681461030557806359a1dde21461037157806369dcdd58146103dd578063906da5a71461041057806390aae45514610489578063b83d481a14610511578063e6e45e5f1461058a578063ee09f72014610663575b600080fd5b3480156100aa57600080fd5b506100cf600480360381019080803563ffffffff1690602001909291905050506107a8565b604051808d63ffffffff1663ffffffff1681526020018c73ffffffffffffffffffffffffffffffffffffffff1673ffffffffffffffffffffffffffffffffffffffff1681526020018b73ffffffffffffffffffffffffffffffffffffffff1673ffffffffffffffffffffffffffffffffffffffff1681526020018a63ffffffff1663ffffffff16815260200180602001806020018963ffffffff1663ffffffff1681526020018863ffffffff1663ffffffff168152602001806020018763ffffffff1663ffffffff1681526020018663ffffffff1663ffffffff1681526020018515151515815260200184810384528c818151815260200191508051906020019080838360005b838110156101f15780820151818401526020810190506101d6565b50505050905090810190601f16801561021e5780820380516001836020036101000a031916815260200191505b5084810383528b818151815260200191508051906020019080838360005b8381101561025757808201518184015260208101905061023c565b50505050905090810190601f1680156102845780820380516001836020036101000a031916815260200191505b50848103825288818151815260200191508051906020019080838360005b838110156102bd5780820151818401526020810190506102a2565b50505050905090810190601f1680156102ea5780820380516001836020036101000a031916815260200191505b509f5050505050505050505050505050505060405180910390f35b34801561031157600080fd5b5061031a610abf565b6040518080602001828103825283818151815260200191508051906020019060200280838360005b8381101561035d578082015181840152602081019050610342565b505050509050019250505060405180910390f35b34801561037d57600080fd5b50610386610b80565b6040518080602001828103825283818151815260200191508051906020019060200280838360005b838110156103c95780820151818401526020810190506103ae565b505050509050019250505060405180910390f35b3480156103e957600080fd5b5061040e600480360381019080803563ffffffff169060200190929190505050610c41565b005b34801561041c57600080fd5b50610487600480360381019080803563ffffffff169060200190929190803590602001908201803590602001908080601f0160208091040260200160405190810160405280939291908181526020018383808284378201915050505050509192919290505050610dea565b005b34801561049557600080fd5b506104ba600480360381019080803563ffffffff169060200190929190505050611000565b6040518080602001828103825283818151815260200191508051906020019060200280838360005b838110156104fd5780820151818401526020810190506104e2565b505050509050019250505060405180910390f35b34801561051d57600080fd5b50610588600480360381019080803563ffffffff169060200190929190803590602001908201803590602001908080601f01602080910402602001604051908101604052809392919081815260200183838082843782019150505050505091929192905050506110a3565b005b34801561059657600080fd5b506105bb600480360381019080803563ffffffff1690602001909291905050506111f3565b604051808563ffffffff1663ffffffff1681526020018463ffffffff1663ffffffff16815260200180602001838152602001828103825284818151815260200191508051906020019080838360005b8381101561062557808201518184015260208101905061060a565b50505050905090810190601f1680156106525780820380516001836020036101000a031916815260200191505b509550505050505060405180910390f35b34801561066f57600080fd5b506107a6600480360381019080803563ffffffff169060200190929190803590602001908201803590602001908080601f0160208091040260200160405190810160405280939291908181526020018383808284378201915050505050509192919290803590602001908201803590602001908080601f0160208091040260200160405190810160405280939291908181526020018383808284378201915050505050509192919290803563ffffffff169060200190929190803563ffffffff169060200190929190803590602001908201803590602001908080601f0160208091040260200160405190810160405280939291908181526020018383808284378201915050505050509192919290803563ffffffff169060200190929190803563ffffffff1690602001909291905050506112fb565b005b6000806000806060806000806060600080600080600460008f63ffffffff1663ffffffff16815260200190815260200160002090508060000160009054906101000a900463ffffffff168160000160049054906101000a900473ffffffffffffffffffffffffffffffffffffffff168260010160009054906101000a900473ffffffffffffffffffffffffffffffffffffffff168360010160149054906101000a900463ffffffff1684600201856003018660040160009054906101000a900463ffffffff168760040160049054906101000a900463ffffffff16886005018960060160009054906101000a900463ffffffff168a60060160049054906101000a900463ffffffff168b60060160089054906101000a900460ff16878054600181600116156101000203166002900480601f0160208091040260200160405190810160405280929190818152602001828054600181600116156101000203166002900480156109585780601f1061092d57610100808354040283529160200191610958565b820191906000526020600020905b81548152906001019060200180831161093b57829003601f168201915b50505050509750868054600181600116156101000203166002900480601f0160208091040260200160405190810160405280929190818152602001828054600181600116156101000203166002900480156109f45780601f106109c9576101008083540402835291602001916109f4565b820191906000526020600020905b8154815290600101906020018083116109d757829003601f168201915b50505050509650838054600181600116156101000203166002900480601f016020809104026020016040519081016040528092919081815260200182805460018160011615610100020316600290048015610a905780601f10610a6557610100808354040283529160200191610a90565b820191906000526020600020905b815481529060010190602001808311610a7357829003601f168201915b505050505093509c509c509c509c509c509c509c509c509c509c509c509c505091939597999b5091939597999b565b6060600160003373ffffffffffffffffffffffffffffffffffffffff1673ffffffffffffffffffffffffffffffffffffffff168152602001908152602001600020805480602002602001604051908101604052809291908181526020018280548015610b7657602002820191906000526020600020906000905b82829054906101000a900463ffffffff1663ffffffff1681526020019060040190602082600301049283019260010382029150808411610b395790505b5050505050905090565b6060600260003373ffffffffffffffffffffffffffffffffffffffff1673ffffffffffffffffffffffffffffffffffffffff168152602001908152602001600020805480602002602001604051908101604052809291908181526020018280548015610c3757602002820191906000526020600020906000905b82829054906101000a900463ffffffff1663ffffffff1681526020019060040190602082600301049283019260010382029150808411610bfa5790505b5050505050905090565b60001515600460008363ffffffff1663ffffffff16815260200190815260200160002060060160089054906101000a900460ff1615151415610da85733600460008363ffffffff1663ffffffff16815260200190815260200160002060010160006101000a81548173ffffffffffffffffffffffffffffffffffffffff021916908373ffffffffffffffffffffffffffffffffffffffff1602179055506001600460008363ffffffff1663ffffffff16815260200190815260200160002060060160086101000a81548160ff021916908315150217905550600260003373ffffffffffffffffffffffffffffffffffffffff1673ffffffffffffffffffffffffffffffffffffffff16815260200190815260200160002081908060018154018082558091505090600182039060005260206000209060089182820401919006600402909192909190916101000a81548163ffffffff021916908363ffffffff160217905550505b610de7816040805190810160405280601c81526020017f546865206f776e657220617070726f766564207468652072656e742e000000008152506110a3565b50565b60606000806000600460008763ffffffff1663ffffffff16815260200190815260200160002060010160006101000a81548173ffffffffffffffffffffffffffffffffffffffff021916908373ffffffffffffffffffffffffffffffffffffffff1602179055506000600460008763ffffffff1663ffffffff16815260200190815260200160002060060160086101000a81548160ff021916908315150217905550600260003373ffffffffffffffffffffffffffffffffffffffff1673ffffffffffffffffffffffffffffffffffffffff168152602001908152602001600020805480602002602001604051908101604052809291908181526020018280548015610f4157602002820191906000526020600020906000905b82829054906101000a900463ffffffff1663ffffffff1681526020019060040190602082600301049283019260010382029150808411610f045790505b50505050509250600090505b8251811015610f92578463ffffffff168382815181101515610f6b57fe5b9060200190602002015163ffffffff161415610f85578091505b8080600101915050610f4d565b610f9c8383611668565b600260003373ffffffffffffffffffffffffffffffffffffffff1673ffffffffffffffffffffffffffffffffffffffff1681526020019081526020016000209080519060200190610fee9291906117be565b50610ff985856110a3565b5050505050565b6060600360008363ffffffff1663ffffffff16815260200190815260200160002080548060200260200160405190810160405280929190818152602001828054801561109757602002820191906000526020600020906000905b82829054906101000a900463ffffffff1663ffffffff168152602001906004019060208260030104928301926001038202915080841161105a5790505b50505050509050919050565b60006110ad61186e565b6110b561177e565b91506080604051908101604052808363ffffffff1681526020018563ffffffff168152602001848152602001428152509050600360008563ffffffff1663ffffffff16815260200190815260200160002082908060018154018082558091505090600182039060005260206000209060089182820401919006600402909192909190916101000a81548163ffffffff021916908363ffffffff1602179055505080600560008463ffffffff1663ffffffff16815260200190815260200160002060008201518160000160006101000a81548163ffffffff021916908363ffffffff16021790555060208201518160000160046101000a81548163ffffffff021916908363ffffffff16021790555060408201518160010190805190602001906111df9291906118a3565b506060820151816002015590505050505050565b6000806060600080600560008763ffffffff1663ffffffff16815260200190815260200160002090508060000160009054906101000a900463ffffffff168160000160049054906101000a900463ffffffff16826001018360020154818054600181600116156101000203166002900480601f0160208091040260200160405190810160405280929190818152602001828054600181600116156101000203166002900480156112e45780601f106112b9576101008083540402835291602001916112e4565b820191906000526020600020905b8154815290600101906020018083116112c757829003601f168201915b505050505091509450945094509450509193509193565b6000611305611923565b61130d61177e565b9150610180604051908101604052808363ffffffff1681526020013373ffffffffffffffffffffffffffffffffffffffff168152602001600073ffffffffffffffffffffffffffffffffffffffff1681526020018b63ffffffff1681526020018a81526020018981526020018863ffffffff1681526020018763ffffffff1681526020018681526020018563ffffffff1681526020018463ffffffff168152602001600015158152509050600160003373ffffffffffffffffffffffffffffffffffffffff1673ffffffffffffffffffffffffffffffffffffffff16815260200190815260200160002082908060018154018082558091505090600182039060005260206000209060089182820401919006600402909192909190916101000a81548163ffffffff021916908363ffffffff1602179055505080600460008463ffffffff1663ffffffff16815260200190815260200160002060008201518160000160006101000a81548163ffffffff021916908363ffffffff16021790555060208201518160000160046101000a81548173ffffffffffffffffffffffffffffffffffffffff021916908373ffffffffffffffffffffffffffffffffffffffff16021790555060408201518160010160006101000a81548173ffffffffffffffffffffffffffffffffffffffff021916908373ffffffffffffffffffffffffffffffffffffffff16021790555060608201518160010160146101000a81548163ffffffff021916908363ffffffff160217905550608082015181600201908051906020019061155e9291906118a3565b5060a082015181600301908051906020019061157b9291906118a3565b5060c08201518160040160006101000a81548163ffffffff021916908363ffffffff16021790555060e08201518160040160046101000a81548163ffffffff021916908363ffffffff1602179055506101008201518160050190805190602001906115e79291906118a3565b506101208201518160060160006101000a81548163ffffffff021916908363ffffffff1602179055506101408201518160060160046101000a81548163ffffffff021916908363ffffffff1602179055506101608201518160060160086101000a81548160ff02191690831515021790555090505050505050505050505050565b606080600084518410151561167c57611776565b60018551036040519080825280602002602001820160405280156116af5781602001602082028038833980820191505090505b509150600090505b815181101561176e578381141580156116cf57508381105b1561171b5784818151811015156116e257fe5b9060200190602002015182828151811015156116fa57fe5b9060200190602002019063ffffffff16908163ffffffff1681525050611761565b846001820181518110151561172c57fe5b90602001906020020151828281518110151561174457fe5b9060200190602002019063ffffffff16908163ffffffff16815250505b80806001019150506116b7565b606094508192505b505092915050565b600080600081819054906101000a900463ffffffff168092919060010191906101000a81548163ffffffff021916908363ffffffff160217905550905090565b8280548282559060005260206000209060070160089004810192821561185d5791602002820160005b8382111561182b57835183826101000a81548163ffffffff021916908363ffffffff16021790555092602001926004016020816003010492830192600103026117e7565b801561185b5782816101000a81549063ffffffff021916905560040160208160030104928301926001030261182b565b505b50905061186a91906119d7565b5090565b608060405190810160405280600063ffffffff168152602001600063ffffffff16815260200160608152602001600081525090565b828054600181600116156101000203166002900490600052602060002090601f016020900481019282601f106118e457805160ff1916838001178555611912565b82800160010185558215611912579182015b828111156119115782518255916020019190600101906118f6565b5b50905061191f9190611a0a565b5090565b61018060405190810160405280600063ffffffff168152602001600073ffffffffffffffffffffffffffffffffffffffff168152602001600073ffffffffffffffffffffffffffffffffffffffff168152602001600063ffffffff1681526020016060815260200160608152602001600063ffffffff168152602001600063ffffffff16815260200160608152602001600063ffffffff168152602001600063ffffffff1681526020016000151581525090565b611a0791905b80821115611a0357600081816101000a81549063ffffffff0219169055506001016119dd565b5090565b90565b611a2c91905b80821115611a28576000816000905550600101611a10565b5090565b905600a165627a7a72305820d0fd4c0c47693a924d909f461cb9b5b1f75167b8d7d689aacd4636c26d546f710029",
  "source": "// solium-disable linebreak-style\r\npragma solidity ^0.4.23;\r\n\r\ncontract ApartmentContract {\r\n    uint32 private apartmentCounter = 0;\r\n    mapping(address => uint32[]) apartments;\r\n    mapping(address => uint32[]) rentedApartments;\r\n    mapping(uint32 => uint32[]) apartmentTransactionMappings;\r\n    \r\n    mapping(uint32 => ApartmentDetail) apartmentDetails;\r\n    mapping(uint32 => ApartmentTransaction) apartmentTransactions;\r\n\r\n    constructor() public {\r\n    }\r\n\r\n    struct ApartmentDetail {\r\n        uint32 id;\r\n        address owner;\r\n        address tenant;\r\n        uint32 postCode;\r\n        string city;\r\n        string street;\r\n        uint32 houseNumber;\r\n        uint32 floor;\r\n        string description;\r\n        uint32 rent;\r\n        uint32 deposit;\r\n        bool isRented;\r\n    }\r\n\r\n    struct ApartmentTransaction {\r\n        uint32 id;\r\n        uint32 apartmentId;\r\n        string message;\r\n        uint timestamp;\r\n    }\r\n\r\n    function getId() private returns(uint32) {\r\n        return apartmentCounter++;\r\n    }\r\n\r\n    // Create functions.\r\n    function createApartment(\r\n        uint32 _postCode, string _city, string _street,\r\n        uint32 _houseNumber, uint32 _floor, string _description, uint32 _rent,\r\n        uint32 _deposit) public {\r\n\r\n        uint32 apartmentId = getId();\r\n        ApartmentDetail memory apartment = ApartmentDetail(\r\n            apartmentId, msg.sender, address(0),\r\n            _postCode, _city, _street, _houseNumber, _floor, _description, _rent, _deposit, false);\r\n        apartments[msg.sender].push(apartmentId);\r\n        apartmentDetails[apartmentId] = apartment;\r\n    }\r\n\r\n    function createTransaction(uint32 _apartmentId, string _transactionMessage) public {\r\n        uint32 transactionId = getId();\r\n        ApartmentTransaction memory transaction = ApartmentTransaction(transactionId, _apartmentId, _transactionMessage, now);\r\n        apartmentTransactionMappings[_apartmentId].push(transactionId);\r\n        apartmentTransactions[transactionId] = transaction;\r\n    }\r\n\r\n    // Read functions.\r\n    function getApartmentIds() public view returns(uint32[]) {\r\n        return apartments[msg.sender];\r\n    }\r\n\r\n    function getRentedApartments() public view returns(uint32[]) {\r\n        return rentedApartments[msg.sender];\r\n    }\r\n\r\n    function getApartmentById(uint32 apartmentId) public view returns(uint32 _id, address _owner, address _tenant,\r\n        uint32 _postCode, string _city, string _street,\r\n        uint32 _houseNumber, uint32 _floor, string _description, uint32 _rent, uint32 _deposit, bool _isRented) {\r\n        ApartmentDetail storage a = apartmentDetails[apartmentId];\r\n        return (a.id, a.owner, a.tenant, a.postCode, a.city, a.street, a.houseNumber, a.floor, a.description, a.rent, a.deposit, a.isRented);\r\n    }\r\n\r\n    function getTransactionIds(uint32 apartmentId) public view returns(uint32[]) {\r\n        return apartmentTransactionMappings[apartmentId];\r\n    }\r\n\r\n    function getTransactionById(uint32 transactionId) public view returns(uint32 _id, uint32 _apartmentId, string _message, uint _timestamp) {\r\n        ApartmentTransaction storage t = apartmentTransactions[transactionId];\r\n        return (t.id, t.apartmentId, t.message, t.timestamp);\r\n    }\r\n\r\n    // Update functions.\r\n    function updateApartment(uint32 _apartmentId) public {\r\n        if (apartmentDetails[_apartmentId].isRented == false) {\r\n            apartmentDetails[_apartmentId].tenant = msg.sender;\r\n            apartmentDetails[_apartmentId].isRented = true;\r\n            rentedApartments[msg.sender].push(_apartmentId);\r\n        }\r\n        createTransaction(_apartmentId, \"The owner approved the rent.\");\r\n    }\r\n\r\n    function terminateContract(uint32 _apartmentId, string _message) public {\r\n        apartmentDetails[_apartmentId].tenant = address(0);\r\n        apartmentDetails[_apartmentId].isRented = false;\r\n        uint32[] memory _apartments = rentedApartments[msg.sender];\r\n        uint _apartmentIndex;\r\n        for (uint i = 0; i < _apartments.length; i++) {\r\n            if (_apartments[i] == _apartmentId) {\r\n                _apartmentIndex = i;\r\n            }\r\n        }\r\n        rentedApartments[msg.sender] = remove(_apartments, _apartmentIndex);\r\n        createTransaction(_apartmentId, _message);\r\n    }\r\n\r\n    function remove(uint32[] array, uint index) internal pure returns(uint32[] value) {\r\n        if (index >= array.length) return;\r\n\r\n        uint32[] memory arrayNew = new uint32[](array.length-1);\r\n        for (uint i = 0; i<arrayNew.length; i++){\r\n            if(i != index && i<index){\r\n                arrayNew[i] = array[i];\r\n            } else {\r\n                arrayNew[i] = array[i+1];\r\n            }\r\n        }\r\n        delete array;\r\n        return arrayNew;\r\n    }\r\n}",
  "sourcePath": "C:\\Users\\david.munkacsi\\pj-ods\\ethereum\\contracts\\ApartmentContract.sol",
  "compiler": {
    "name": "solc",
    "version": "0.4.24+commit.e67f0147.Emscripten.clang"
  },
  "schemaVersion": "2.0.1",
  "updatedAt": "2019-01-25T20:18:43.987Z"
}