{
  "contractName": "ApartmentContract",
  "abi": [
    {
      "inputs": [],
      "payable": false,
      "stateMutability": "nonpayable",
      "type": "constructor"
    },
    {
      "constant": false,
      "inputs": [
        {
          "name": "_postCode",
          "type": "uint32"
        },
        {
          "name": "_city",
          "type": "string"
        },
        {
          "name": "_street",
          "type": "string"
        },
        {
          "name": "_houseNumber",
          "type": "uint32"
        },
        {
          "name": "_floor",
          "type": "uint32"
        },
        {
          "name": "_description",
          "type": "string"
        },
        {
          "name": "_rent",
          "type": "uint32"
        },
        {
          "name": "_deposit",
          "type": "uint32"
        }
      ],
      "name": "createApartment",
      "outputs": [],
      "payable": false,
      "stateMutability": "nonpayable",
      "type": "function"
    },
    {
      "constant": true,
      "inputs": [],
      "name": "getApartmentIds",
      "outputs": [
        {
          "name": "",
          "type": "uint32[]"
        }
      ],
      "payable": false,
      "stateMutability": "view",
      "type": "function"
    }
  ],
  "bytecode": "0x608060405260008060006101000a81548163ffffffff021916908363ffffffff16021790555034801561003157600080fd5b506107f5806100416000396000f30060806040526004361061004c576000357c0100000000000000000000000000000000000000000000000000000000900463ffffffff16806334745e6814610051578063ee09f720146100bd575b600080fd5b34801561005d57600080fd5b50610066610202565b6040518080602001828103825283818151815260200191508051906020019060200280838360005b838110156100a957808201518184015260208101905061008e565b505050509050019250505060405180910390f35b3480156100c957600080fd5b50610200600480360381019080803563ffffffff169060200190929190803590602001908201803590602001908080601f0160208091040260200160405190810160405280939291908181526020018383808284378201915050505050509192919290803590602001908201803590602001908080601f0160208091040260200160405190810160405280939291908181526020018383808284378201915050505050509192919290803563ffffffff169060200190929190803563ffffffff169060200190929190803590602001908201803590602001908080601f0160208091040260200160405190810160405280939291908181526020018383808284378201915050505050509192919290803563ffffffff169060200190929190803563ffffffff1690602001909291905050506102c3565b005b6060600160003373ffffffffffffffffffffffffffffffffffffffff1673ffffffffffffffffffffffffffffffffffffffff1681526020019081526020016000208054806020026020016040519081016040528092919081815260200182805480156102b957602002820191906000526020600020906000905b82829054906101000a900463ffffffff1663ffffffff168152602001906004019060208260030104928301926001038202915080841161027c5790505b5050505050905090565b60006102cd610670565b6102d5610630565b9150610180604051908101604052808363ffffffff1681526020013373ffffffffffffffffffffffffffffffffffffffff168152602001600073ffffffffffffffffffffffffffffffffffffffff1681526020018b63ffffffff1681526020018a81526020018981526020018863ffffffff1681526020018763ffffffff1681526020018681526020018563ffffffff1681526020018463ffffffff168152602001600015158152509050600160003373ffffffffffffffffffffffffffffffffffffffff1673ffffffffffffffffffffffffffffffffffffffff16815260200190815260200160002082908060018154018082558091505090600182039060005260206000209060089182820401919006600402909192909190916101000a81548163ffffffff021916908363ffffffff1602179055505080600260008463ffffffff1663ffffffff16815260200190815260200160002060008201518160000160006101000a81548163ffffffff021916908363ffffffff16021790555060208201518160000160046101000a81548173ffffffffffffffffffffffffffffffffffffffff021916908373ffffffffffffffffffffffffffffffffffffffff16021790555060408201518160010160006101000a81548173ffffffffffffffffffffffffffffffffffffffff021916908373ffffffffffffffffffffffffffffffffffffffff16021790555060608201518160010160146101000a81548163ffffffff021916908363ffffffff1602179055506080820151816002019080519060200190610526929190610724565b5060a0820151816003019080519060200190610543929190610724565b5060c08201518160040160006101000a81548163ffffffff021916908363ffffffff16021790555060e08201518160040160046101000a81548163ffffffff021916908363ffffffff1602179055506101008201518160050190805190602001906105af929190610724565b506101208201518160060160006101000a81548163ffffffff021916908363ffffffff1602179055506101408201518160060160046101000a81548163ffffffff021916908363ffffffff1602179055506101608201518160060160086101000a81548160ff02191690831515021790555090505050505050505050505050565b600080600081819054906101000a900463ffffffff168092919060010191906101000a81548163ffffffff021916908363ffffffff160217905550905090565b61018060405190810160405280600063ffffffff168152602001600073ffffffffffffffffffffffffffffffffffffffff168152602001600073ffffffffffffffffffffffffffffffffffffffff168152602001600063ffffffff1681526020016060815260200160608152602001600063ffffffff168152602001600063ffffffff16815260200160608152602001600063ffffffff168152602001600063ffffffff1681526020016000151581525090565b828054600181600116156101000203166002900490600052602060002090601f016020900481019282601f1061076557805160ff1916838001178555610793565b82800160010185558215610793579182015b82811115610792578251825591602001919060010190610777565b5b5090506107a091906107a4565b5090565b6107c691905b808211156107c25760008160009055506001016107aa565b5090565b905600a165627a7a72305820bca8b0988c02d920960a89ee9de430d230c962bff3a5e3eb515d35dba523e0460029",
  "source": "// solium-disable linebreak-style\r\npragma solidity ^0.4.23;\r\n\r\ncontract ApartmentContract {\r\n    uint32 private apartmentCounter = 0;\r\n    mapping(address => uint32[]) apartments;\r\n    mapping(uint32 => ApartmentDetail) apartmentDetails;\r\n\r\n    constructor() public {\r\n    }\r\n\r\n    struct ApartmentDetail {\r\n        uint32 id;\r\n        address owner;\r\n        address tenant;\r\n        uint32 postCode;\r\n        string city;\r\n        string street;\r\n        uint32 houseNumber;\r\n        uint32 floor;\r\n        string description;\r\n        uint32 rent;\r\n        uint32 deposit;\r\n        bool isRented;\r\n    }\r\n\r\n    function getId() private returns(uint32) {\r\n        return apartmentCounter++;\r\n    }\r\n\r\n    function createApartment(\r\n        uint32 _postCode, string _city, string _street,\r\n        uint32 _houseNumber, uint32 _floor, string _description, uint32 _rent,\r\n        uint32 _deposit) public {\r\n\r\n        uint32 apartmentId = getId();\r\n        ApartmentDetail memory apartment = ApartmentDetail(\r\n            apartmentId, msg.sender, address(0),\r\n            _postCode, _city, _street, _houseNumber, _floor, _description, _rent, _deposit, false);\r\n        apartments[msg.sender].push(apartmentId);\r\n        apartmentDetails[apartmentId] = apartment;\r\n    }\r\n\r\n    function getApartmentIds() public view returns(uint32[]) {\r\n        return apartments[msg.sender];\r\n    }\r\n}",
  "sourcePath": "C:\\Users\\david.munkacsi\\pj-ods\\ethereum\\contracts\\ApartmentContract.sol",
  "compiler": {
    "name": "solc",
    "version": "0.4.24+commit.e67f0147.Emscripten.clang"
  },
  "schemaVersion": "2.0.1",
  "updatedAt": "2019-01-13T17:59:33.824Z"
}