{
  "contractName": "UserContract",
  "abi": [
    {
      "constant": false,
      "inputs": [
        {
          "name": "username",
          "type": "string"
        },
        {
          "name": "password",
          "type": "string"
        }
      ],
      "name": "createUser",
      "outputs": [],
      "payable": false,
      "stateMutability": "nonpayable",
      "type": "function"
    },
    {
      "constant": true,
      "inputs": [
        {
          "name": "username",
          "type": "string"
        },
        {
          "name": "password",
          "type": "string"
        }
      ],
      "name": "authenticate",
      "outputs": [
        {
          "name": "_success",
          "type": "bool"
        },
        {
          "name": "_username",
          "type": "string"
        },
        {
          "name": "_userAddress",
          "type": "address"
        }
      ],
      "payable": false,
      "stateMutability": "view",
      "type": "function"
    },
    {
      "constant": true,
      "inputs": [
        {
          "name": "username",
          "type": "string"
        }
      ],
      "name": "isUsernameExisting",
      "outputs": [
        {
          "name": "",
          "type": "bool"
        }
      ],
      "payable": false,
      "stateMutability": "view",
      "type": "function"
    },
    {
      "constant": true,
      "inputs": [
        {
          "name": "userAddress",
          "type": "address"
        }
      ],
      "name": "getUsername",
      "outputs": [
        {
          "name": "",
          "type": "string"
        }
      ],
      "payable": false,
      "stateMutability": "view",
      "type": "function"
    }
  ],
  "bytecode": "0x608060405234801561001057600080fd5b50610d8b806100206000396000f300608060405260043610610062576000357c0100000000000000000000000000000000000000000000000000000000900463ffffffff168063544541b31461006757806387b162b5146101cd578063915c42601461027c578063ce43c032146102fd575b600080fd5b34801561007357600080fd5b50610114600480360381019080803590602001908201803590602001908080601f0160208091040260200160405190810160405280939291908181526020018383808284378201915050505050509192919290803590602001908201803590602001908080601f01602080910402602001604051908101604052809392919081815260200183838082843782019150505050505091929192905050506103b9565b6040518084151515158152602001806020018373ffffffffffffffffffffffffffffffffffffffff1673ffffffffffffffffffffffffffffffffffffffff168152602001828103825284818151815260200191508051906020019080838360005b83811015610190578082015181840152602081019050610175565b50505050905090810190601f1680156101bd5780820380516001836020036101000a031916815260200191505b5094505050505060405180910390f35b3480156101d957600080fd5b5061027a600480360381019080803590602001908201803590602001908080601f0160208091040260200160405190810160405280939291908181526020018383808284378201915050505050509192919290803590602001908201803590602001908080601f01602080910402602001604051908101604052809392919081815260200183838082843782019150505050505091929192905050506106d1565b005b34801561028857600080fd5b506102e3600480360381019080803590602001908201803590602001908080601f0160208091040260200160405190810160405280939291908181526020018383808284378201915050505050509192919290505050610a01565b604051808215151515815260200191505060405180910390f35b34801561030957600080fd5b5061033e600480360381019080803573ffffffffffffffffffffffffffffffffffffffff169060200190929190505050610b1e565b6040518080602001828103825283818151815260200191508051906020019080838360005b8381101561037e578082015181840152602081019050610363565b50505050905090810190601f1680156103ab5780820380516001836020036101000a031916815260200191505b509250505060405180910390f35b600060606000806000866040516020018080602001828103825283818151815260200191508051906020019080838360005b838110156104065780820151818401526020810190506103eb565b50505050905090810190601f1680156104335780820380516001836020036101000a031916815260200191505b50925050506040516020818303038152906040526040518082805190602001908083835b60208310151561047c5780518252602082019150602081019050602083039250610457565b6001836020036101000a03801982511681845116808217855250505050505090500191505060405180910390209150856040516020018080602001828103825283818151815260200191508051906020019080838360005b838110156104ef5780820151818401526020810190506104d4565b50505050905090810190601f16801561051c5780820380516001836020036101000a031916815260200191505b50925050506040516020818303038152906040526040518082805190602001908083835b6020831015156105655780518252602082019150602081019050602083039250610540565b6001836020036101000a0380198251168184511680821785525050505050509050019150506040518091039020600019166000808460001916600019168152602001908152602001600020600101546000191614156106ac57600080836000191660001916815260200190815260200160002090506001816000018260020160009054906101000a900473ffffffffffffffffffffffffffffffffffffffff16818054600181600116156101000203166002900480601f01602080910402602001604051908101604052809291908181526020018280546001816001161561010002031660029004801561069a5780601f1061066f5761010080835404028352916020019161069a565b820191906000526020600020905b81548152906001019060200180831161067d57829003601f168201915b505050505091509450945094506106c8565b6000806020604051908101604052806000815250909450945094505b50509250925092565b6106d9610bff565b6000606060405190810160405280858152602001846040516020018080602001828103825283818151815260200191508051906020019080838360005b83811015610731578082015181840152602081019050610716565b50505050905090810190601f16801561075e5780820380516001836020036101000a031916815260200191505b50925050506040516020818303038152906040526040518082805190602001908083835b6020831015156107a75780518252602082019150602081019050602083039250610782565b6001836020036101000a03801982511681845116808217855250505050505090500191505060405180910390206000191681526020013373ffffffffffffffffffffffffffffffffffffffff168152509150836040516020018080602001828103825283818151815260200191508051906020019080838360005b8381101561083d578082015181840152602081019050610822565b50505050905090810190601f16801561086a5780820380516001836020036101000a031916815260200191505b50925050506040516020818303038152906040526040518082805190602001908083835b6020831015156108b3578051825260208201915060208101905060208303925061088e565b6001836020036101000a038019825116818451168082178552505050505050905001915050604051809103902090508160008083600019166000191681526020019081526020016000206000820151816000019080519060200190610919929190610c3a565b506020820151816001019060001916905560408201518160020160006101000a81548173ffffffffffffffffffffffffffffffffffffffff021916908373ffffffffffffffffffffffffffffffffffffffff1602179055509050506001806000836000191660001916815260200190815260200160002060006101000a81548160ff02191690831515021790555083600260003373ffffffffffffffffffffffffffffffffffffffff1673ffffffffffffffffffffffffffffffffffffffff16815260200190815260200160002090805190602001906109fa929190610cba565b5050505050565b600080826040516020018080602001828103825283818151815260200191508051906020019080838360005b83811015610a48578082015181840152602081019050610a2d565b50505050905090810190601f168015610a755780820380516001836020036101000a031916815260200191505b50925050506040516020818303038152906040526040518082805190602001908083835b602083101515610abe5780518252602082019150602081019050602083039250610a99565b6001836020036101000a0380198251168184511680821785525050505050509050019150506040518091039020905060016000826000191660001916815260200190815260200160002060009054906101000a900460ff16915050919050565b6060600260008373ffffffffffffffffffffffffffffffffffffffff1673ffffffffffffffffffffffffffffffffffffffff1681526020019081526020016000208054600181600116156101000203166002900480601f016020809104026020016040519081016040528092919081815260200182805460018160011615610100020316600290048015610bf35780601f10610bc857610100808354040283529160200191610bf3565b820191906000526020600020905b815481529060010190602001808311610bd657829003601f168201915b50505050509050919050565b6060604051908101604052806060815260200160008019168152602001600073ffffffffffffffffffffffffffffffffffffffff1681525090565b828054600181600116156101000203166002900490600052602060002090601f016020900481019282601f10610c7b57805160ff1916838001178555610ca9565b82800160010185558215610ca9579182015b82811115610ca8578251825591602001919060010190610c8d565b5b509050610cb69190610d3a565b5090565b828054600181600116156101000203166002900490600052602060002090601f016020900481019282601f10610cfb57805160ff1916838001178555610d29565b82800160010185558215610d29579182015b82811115610d28578251825591602001919060010190610d0d565b5b509050610d369190610d3a565b5090565b610d5c91905b80821115610d58576000816000905550600101610d40565b5090565b905600a165627a7a72305820d8e09fc12a55d879932501158d592858fd8c3625eeab05170b787655e70346f10029",
  "source": "// solium-disable linebreak-style\r\npragma solidity ^0.4.23;\r\n\r\ncontract UserContract {\r\n\r\n    struct User {\r\n        string username;\r\n        bytes32 password;\r\n        address userAddress;\r\n    }\r\n\r\n    mapping (bytes32 => User) userMapping;\r\n    mapping (bytes32 => bool) userExists;\r\n    mapping (address => string) usernameMapping;\r\n\r\n    function createUser(string memory username, string memory password) public {\r\n        User memory user = User(username, keccak256(abi.encode(password)), msg.sender);\r\n        bytes32 usernameHash = keccak256(abi.encode(username));\r\n        userMapping[usernameHash] = user;\r\n        userExists[usernameHash] = true;\r\n        usernameMapping[msg.sender] = username;\r\n    }\r\n\r\n    function authenticate(string memory username, string memory password)\r\n        public view returns (bool _success, string memory _username, address _userAddress) {\r\n\r\n        bytes32 usernameHash = keccak256(abi.encode(username));\r\n        if (userMapping[usernameHash].password == keccak256(abi.encode(password))) {\r\n            User storage user = userMapping[usernameHash];\r\n            return (true, user.username, user.userAddress);\r\n        }\r\n\r\n        return (false, \"\", address(0));\r\n    }\r\n\r\n    function isUsernameExisting(string memory username) public view returns (bool) {\r\n        bytes32 usernameHash = keccak256(abi.encode(username));\r\n        return userExists[usernameHash];\r\n    }\r\n\r\n    function getUsername(address userAddress) public view returns (string) {\r\n        return usernameMapping[userAddress];\r\n    }\r\n}",
  "sourcePath": "C:\\Users\\david.munkacsi\\pj-ods\\ethereum\\contracts\\UserContract.sol",
  "compiler": {
    "name": "solc",
    "version": "0.4.24+commit.e67f0147.Emscripten.clang"
  },
  "schemaVersion": "2.0.1",
  "updatedAt": "2019-01-26T10:31:21.316Z"
}