{
  "contractName": "UserContract",
  "abi": [
    {
      "constant": false,
      "inputs": [
        {
          "name": "username",
          "type": "string"
        },
        {
          "name": "password",
          "type": "string"
        }
      ],
      "name": "createUser",
      "outputs": [],
      "payable": false,
      "stateMutability": "nonpayable",
      "type": "function"
    },
    {
      "constant": true,
      "inputs": [
        {
          "name": "username",
          "type": "string"
        },
        {
          "name": "password",
          "type": "string"
        }
      ],
      "name": "authenticate",
      "outputs": [
        {
          "name": "_success",
          "type": "bool"
        },
        {
          "name": "_username",
          "type": "string"
        },
        {
          "name": "_userAddress",
          "type": "address"
        }
      ],
      "payable": false,
      "stateMutability": "view",
      "type": "function"
    },
    {
      "constant": true,
      "inputs": [
        {
          "name": "username",
          "type": "string"
        }
      ],
      "name": "isUsernameExisting",
      "outputs": [
        {
          "name": "",
          "type": "bool"
        }
      ],
      "payable": false,
      "stateMutability": "view",
      "type": "function"
    }
  ],
  "bytecode": "0x608060405234801561001057600080fd5b50610b0f806100206000396000f300608060405260043610610057576000357c0100000000000000000000000000000000000000000000000000000000900463ffffffff168063544541b31461005c57806387b162b5146101c2578063915c426014610271575b600080fd5b34801561006857600080fd5b50610109600480360381019080803590602001908201803590602001908080601f0160208091040260200160405190810160405280939291908181526020018383808284378201915050505050509192919290803590602001908201803590602001908080601f01602080910402602001604051908101604052809392919081815260200183838082843782019150505050505091929192905050506102f2565b6040518084151515158152602001806020018373ffffffffffffffffffffffffffffffffffffffff1673ffffffffffffffffffffffffffffffffffffffff168152602001828103825284818151815260200191508051906020019080838360005b8381101561018557808201518184015260208101905061016a565b50505050905090810190601f1680156101b25780820380516001836020036101000a031916815260200191505b5094505050505060405180910390f35b3480156101ce57600080fd5b5061026f600480360381019080803590602001908201803590602001908080601f0160208091040260200160405190810160405280939291908181526020018383808284378201915050505050509192919290803590602001908201803590602001908080601f016020809104026020016040519081016040528093929190818152602001838380828437820191505050505050919291929050505061060a565b005b34801561027d57600080fd5b506102d8600480360381019080803590602001908201803590602001908080601f01602080910402602001604051908101604052809392919081815260200183838082843782019150505050505091929192905050506108e6565b604051808215151515815260200191505060405180910390f35b600060606000806000866040516020018080602001828103825283818151815260200191508051906020019080838360005b8381101561033f578082015181840152602081019050610324565b50505050905090810190601f16801561036c5780820380516001836020036101000a031916815260200191505b50925050506040516020818303038152906040526040518082805190602001908083835b6020831015156103b55780518252602082019150602081019050602083039250610390565b6001836020036101000a03801982511681845116808217855250505050505090500191505060405180910390209150856040516020018080602001828103825283818151815260200191508051906020019080838360005b8381101561042857808201518184015260208101905061040d565b50505050905090810190601f1680156104555780820380516001836020036101000a031916815260200191505b50925050506040516020818303038152906040526040518082805190602001908083835b60208310151561049e5780518252602082019150602081019050602083039250610479565b6001836020036101000a0380198251168184511680821785525050505050509050019150506040518091039020600019166000808460001916600019168152602001908152602001600020600101546000191614156105e557600080836000191660001916815260200190815260200160002090506001816000018260020160009054906101000a900473ffffffffffffffffffffffffffffffffffffffff16818054600181600116156101000203166002900480601f0160208091040260200160405190810160405280929190818152602001828054600181600116156101000203166002900480156105d35780601f106105a8576101008083540402835291602001916105d3565b820191906000526020600020905b8154815290600101906020018083116105b657829003601f168201915b50505050509150945094509450610601565b6000806020604051908101604052806000815250909450945094505b50509250925092565b610612610a03565b6000606060405190810160405280858152602001846040516020018080602001828103825283818151815260200191508051906020019080838360005b8381101561066a57808201518184015260208101905061064f565b50505050905090810190601f1680156106975780820380516001836020036101000a031916815260200191505b50925050506040516020818303038152906040526040518082805190602001908083835b6020831015156106e057805182526020820191506020810190506020830392506106bb565b6001836020036101000a03801982511681845116808217855250505050505090500191505060405180910390206000191681526020013373ffffffffffffffffffffffffffffffffffffffff168152509150836040516020018080602001828103825283818151815260200191508051906020019080838360005b8381101561077657808201518184015260208101905061075b565b50505050905090810190601f1680156107a35780820380516001836020036101000a031916815260200191505b50925050506040516020818303038152906040526040518082805190602001908083835b6020831015156107ec57805182526020820191506020810190506020830392506107c7565b6001836020036101000a038019825116818451168082178552505050505050905001915050604051809103902090508160008083600019166000191681526020019081526020016000206000820151816000019080519060200190610852929190610a3e565b506020820151816001019060001916905560408201518160020160006101000a81548173ffffffffffffffffffffffffffffffffffffffff021916908373ffffffffffffffffffffffffffffffffffffffff1602179055509050506001806000836000191660001916815260200190815260200160002060006101000a81548160ff02191690831515021790555050505050565b600080826040516020018080602001828103825283818151815260200191508051906020019080838360005b8381101561092d578082015181840152602081019050610912565b50505050905090810190601f16801561095a5780820380516001836020036101000a031916815260200191505b50925050506040516020818303038152906040526040518082805190602001908083835b6020831015156109a3578051825260208201915060208101905060208303925061097e565b6001836020036101000a0380198251168184511680821785525050505050509050019150506040518091039020905060016000826000191660001916815260200190815260200160002060009054906101000a900460ff16915050919050565b6060604051908101604052806060815260200160008019168152602001600073ffffffffffffffffffffffffffffffffffffffff1681525090565b828054600181600116156101000203166002900490600052602060002090601f016020900481019282601f10610a7f57805160ff1916838001178555610aad565b82800160010185558215610aad579182015b82811115610aac578251825591602001919060010190610a91565b5b509050610aba9190610abe565b5090565b610ae091905b80821115610adc576000816000905550600101610ac4565b5090565b905600a165627a7a72305820a7e621b4b18011c566687b3d71a133de7cbdfdb2fe89395af9df63b999c68cae0029",
  "source": "// solium-disable linebreak-style\r\npragma solidity ^0.4.23;\r\n\r\ncontract UserContract {\r\n\r\n    struct User {\r\n        string username;\r\n        bytes32 password;\r\n        address userAddress;\r\n    }\r\n\r\n    mapping (bytes32 => User) userMapping;\r\n    mapping (bytes32 => bool) userExists;\r\n\r\n    function createUser(string memory username, string memory password) public {\r\n        User memory user = User(username, keccak256(abi.encode(password)), msg.sender);\r\n        bytes32 usernameHash = keccak256(abi.encode(username));\r\n        userMapping[usernameHash] = user;\r\n        userExists[usernameHash] = true;\r\n    }\r\n\r\n    function authenticate(string memory username, string memory password)\r\n        public view returns (bool _success, string memory _username, address _userAddress) {\r\n\r\n        bytes32 usernameHash = keccak256(abi.encode(username));\r\n        if (userMapping[usernameHash].password == keccak256(abi.encode(password))) {\r\n            User storage user = userMapping[usernameHash];\r\n            return (true, user.username, user.userAddress);\r\n        }\r\n\r\n        return (false, \"\", address(0));\r\n    }\r\n\r\n    function isUsernameExisting(string memory username) public view returns (bool) {\r\n        bytes32 usernameHash = keccak256(abi.encode(username));\r\n        return userExists[usernameHash];\r\n    }\r\n}",
  "sourcePath": "C:\\Users\\david.munkacsi\\pj-ods\\ethereum\\contracts\\UserContract.sol",
  "compiler": {
    "name": "solc",
    "version": "0.4.24+commit.e67f0147.Emscripten.clang"
  },
  "schemaVersion": "2.0.1",
  "updatedAt": "2018-12-02T15:11:06.651Z"
}