{
  "contractName": "UserContract",
  "abi": [
    {
      "constant": false,
      "inputs": [
        {
          "name": "username",
          "type": "string"
        },
        {
          "name": "password",
          "type": "string"
        }
      ],
      "name": "createUser",
      "outputs": [],
      "payable": false,
      "stateMutability": "nonpayable",
      "type": "function"
    },
    {
      "constant": true,
      "inputs": [
        {
          "name": "username",
          "type": "string"
        },
        {
          "name": "password",
          "type": "string"
        }
      ],
      "name": "authenticate",
      "outputs": [
        {
          "name": "_success",
          "type": "bool"
        },
        {
          "name": "_username",
          "type": "string"
        },
        {
          "name": "_userAddress",
          "type": "address"
        }
      ],
      "payable": false,
      "stateMutability": "view",
      "type": "function"
    },
    {
      "constant": true,
      "inputs": [
        {
          "name": "username",
          "type": "string"
        }
      ],
      "name": "isUsernameExisting",
      "outputs": [
        {
          "name": "",
          "type": "bool"
        }
      ],
      "payable": false,
      "stateMutability": "view",
      "type": "function"
    }
  ],
  "bytecode": "0x608060405234801561001057600080fd5b506109a1806100206000396000f300608060405260043610610057576000357c0100000000000000000000000000000000000000000000000000000000900463ffffffff168063544541b31461005c57806387b162b5146101c2578063915c426014610271575b600080fd5b34801561006857600080fd5b50610109600480360381019080803590602001908201803590602001908080601f0160208091040260200160405190810160405280939291908181526020018383808284378201915050505050509192919290803590602001908201803590602001908080601f01602080910402602001604051908101604052809392919081815260200183838082843782019150505050505091929192905050506102f2565b6040518084151515158152602001806020018373ffffffffffffffffffffffffffffffffffffffff1673ffffffffffffffffffffffffffffffffffffffff168152602001828103825284818151815260200191508051906020019080838360005b8381101561018557808201518184015260208101905061016a565b50505050905090810190601f1680156101b25780820380516001836020036101000a031916815260200191505b5094505050505060405180910390f35b3480156101ce57600080fd5b5061026f600480360381019080803590602001908201803590602001908080601f0160208091040260200160405190810160405280939291908181526020018383808284378201915050505050509192919290803590602001908201803590602001908080601f01602080910402602001604051908101604052809392919081815260200183838082843782019150505050505091929192905050506105c0565b005b34801561027d57600080fd5b506102d8600480360381019080803590602001908201803590602001908080601f01602080910402602001604051908101604052809392919081815260200183838082843782019150505050505091929192905050506107f7565b604051808215151515815260200191505060405180910390f35b60006060600080846040516020018080602001828103825283818151815260200191508051906020019080838360005b8381101561033d578082015181840152602081019050610322565b50505050905090810190601f16801561036a5780820380516001836020036101000a031916815260200191505b50925050506040516020818303038152906040526040518082805190602001908083835b6020831015156103b3578051825260208201915060208101905060208303925061038e565b6001836020036101000a0380198251168184511680821785525050505050509050019150506040518091039020600019166000876040518082805190602001908083835b60208310151561041c57805182526020820191506020810190506020830392506103f7565b6001836020036101000a03801982511681845116808217855250505050505090500191505090815260200160405180910390206001015460001916141561059c576000866040518082805190602001908083835b6020831015156104955780518252602082019150602081019050602083039250610470565b6001836020036101000a038019825116818451168082178552505050505050905001915050908152602001604051809103902090506001816000018260020160009054906101000a900473ffffffffffffffffffffffffffffffffffffffff16818054600181600116156101000203166002900480601f01602080910402602001604051908101604052809291908181526020018280546001816001161561010002031660029004801561058a5780601f1061055f5761010080835404028352916020019161058a565b820191906000526020600020905b81548152906001019060200180831161056d57829003601f168201915b505050505091509350935093506105b8565b6000806020604051908101604052806000815250909350935093505b509250925092565b6105c861088c565b608060405190810160405280848152602001836040516020018080602001828103825283818151815260200191508051906020019080838360005b8381101561061e578082015181840152602081019050610603565b50505050905090810190601f16801561064b5780820380516001836020036101000a031916815260200191505b50925050506040516020818303038152906040526040518082805190602001908083835b602083101515610694578051825260208201915060208101905060208303925061066f565b6001836020036101000a03801982511681845116808217855250505050505090500191505060405180910390206000191681526020013373ffffffffffffffffffffffffffffffffffffffff168152602001600115158152509050806000846040518082805190602001908083835b6020831015156107285780518252602082019150602081019050602083039250610703565b6001836020036101000a038019825116818451168082178552505050505050905001915050908152602001604051809103902060008201518160000190805190602001906107779291906108d0565b506020820151816001019060001916905560408201518160020160006101000a81548173ffffffffffffffffffffffffffffffffffffffff021916908373ffffffffffffffffffffffffffffffffffffffff16021790555060608201518160020160146101000a81548160ff021916908315150217905550905050505050565b600080826040518082805190602001908083835b602083101515610830578051825260208201915060208101905060208303925061080b565b6001836020036101000a038019825116818451168082178552505050505050905001915050908152602001604051809103902060020160149054906101000a900460ff16156108825760009050610887565b600190505b919050565b6080604051908101604052806060815260200160008019168152602001600073ffffffffffffffffffffffffffffffffffffffff1681526020016000151581525090565b828054600181600116156101000203166002900490600052602060002090601f016020900481019282601f1061091157805160ff191683800117855561093f565b8280016001018555821561093f579182015b8281111561093e578251825591602001919060010190610923565b5b50905061094c9190610950565b5090565b61097291905b8082111561096e576000816000905550600101610956565b5090565b905600a165627a7a72305820dd0bd147181bf8bd04ff6f344fd38cc071fa0d3fdc69909add5ea9e4cfb30a150029",
  "source": "// solium-disable linebreak-style\r\npragma solidity ^0.4.23;\r\n\r\ncontract UserContract {\r\n\r\n    struct User {\r\n        string username;\r\n        bytes32 password;\r\n        address userAddress;\r\n        bool isExisting;\r\n    }\r\n\r\n    mapping (string => User) userMapping;\r\n\r\n    function createUser(string memory username, string memory password) public {\r\n        User memory user = User(username, keccak256(abi.encode(password)), msg.sender, true);\r\n        userMapping[username] = user;\r\n    }\r\n\r\n    function authenticate(string memory username, string memory password)\r\n        public view returns (bool _success, string memory _username, address _userAddress) {\r\n\r\n        if (userMapping[username].password == keccak256(abi.encode(password))) {\r\n            User storage user = userMapping[username];\r\n            return (true, user.username, user.userAddress);\r\n        }\r\n\r\n        return (false, \"\", address(0));\r\n    }\r\n\r\n    function isUsernameExisting(string memory username) public view returns (bool) {\r\n        if (userMapping[username].isExisting) return false;\r\n        return true;\r\n    }\r\n}",
  "sourcePath": "C:\\Users\\david.munkacsi\\pj-ods\\ethereum\\contracts\\UserContract.sol",
  "compiler": {
    "name": "solc",
    "version": "0.4.24+commit.e67f0147.Emscripten.clang"
  },
  "schemaVersion": "2.0.1",
  "updatedAt": "2018-12-01T19:08:42.267Z"
}