{
  "contractName": "ApartmentContract",
  "abi": [
    {
      "inputs": [],
      "payable": false,
      "stateMutability": "nonpayable",
      "type": "constructor"
    },
    {
      "constant": false,
      "inputs": [
        {
          "name": "_postCode",
          "type": "uint32"
        },
        {
          "name": "_city",
          "type": "string"
        },
        {
          "name": "_street",
          "type": "string"
        },
        {
          "name": "_houseNumber",
          "type": "uint32"
        },
        {
          "name": "_floor",
          "type": "uint32"
        },
        {
          "name": "_description",
          "type": "string"
        },
        {
          "name": "_rent",
          "type": "uint32"
        },
        {
          "name": "_deposit",
          "type": "uint32"
        },
        {
          "name": "_transactionMessage",
          "type": "string"
        }
      ],
      "name": "createApartment",
      "outputs": [],
      "payable": false,
      "stateMutability": "nonpayable",
      "type": "function"
    },
    {
      "constant": false,
      "inputs": [
        {
          "name": "_apartmentId",
          "type": "uint32"
        },
        {
          "name": "_transactionMessage",
          "type": "string"
        }
      ],
      "name": "createTransaction",
      "outputs": [],
      "payable": false,
      "stateMutability": "nonpayable",
      "type": "function"
    },
    {
      "constant": true,
      "inputs": [],
      "name": "getApartmentIds",
      "outputs": [
        {
          "name": "",
          "type": "uint32[]"
        }
      ],
      "payable": false,
      "stateMutability": "view",
      "type": "function"
    },
    {
      "constant": true,
      "inputs": [],
      "name": "getRentedApartments",
      "outputs": [
        {
          "name": "",
          "type": "uint32[]"
        }
      ],
      "payable": false,
      "stateMutability": "view",
      "type": "function"
    },
    {
      "constant": true,
      "inputs": [
        {
          "name": "apartmentId",
          "type": "uint32"
        }
      ],
      "name": "getApartmentById",
      "outputs": [
        {
          "name": "_id",
          "type": "uint32"
        },
        {
          "name": "_owner",
          "type": "address"
        },
        {
          "name": "_tenant",
          "type": "address"
        },
        {
          "name": "_postCode",
          "type": "uint32"
        },
        {
          "name": "_city",
          "type": "string"
        },
        {
          "name": "_street",
          "type": "string"
        },
        {
          "name": "_houseNumber",
          "type": "uint32"
        },
        {
          "name": "_floor",
          "type": "uint32"
        },
        {
          "name": "_description",
          "type": "string"
        },
        {
          "name": "_rent",
          "type": "uint32"
        },
        {
          "name": "_deposit",
          "type": "uint32"
        },
        {
          "name": "_isRented",
          "type": "bool"
        }
      ],
      "payable": false,
      "stateMutability": "view",
      "type": "function"
    },
    {
      "constant": true,
      "inputs": [
        {
          "name": "apartmentId",
          "type": "uint32"
        }
      ],
      "name": "getTransactionIds",
      "outputs": [
        {
          "name": "",
          "type": "uint32[]"
        }
      ],
      "payable": false,
      "stateMutability": "view",
      "type": "function"
    },
    {
      "constant": true,
      "inputs": [
        {
          "name": "transactionId",
          "type": "uint32"
        }
      ],
      "name": "getTransactionById",
      "outputs": [
        {
          "name": "_id",
          "type": "uint32"
        },
        {
          "name": "_apartmentId",
          "type": "uint32"
        },
        {
          "name": "_message",
          "type": "string"
        },
        {
          "name": "_timestamp",
          "type": "uint256"
        }
      ],
      "payable": false,
      "stateMutability": "view",
      "type": "function"
    },
    {
      "constant": false,
      "inputs": [
        {
          "name": "_apartmentId",
          "type": "uint32"
        }
      ],
      "name": "updateApartment",
      "outputs": [],
      "payable": false,
      "stateMutability": "nonpayable",
      "type": "function"
    },
    {
      "constant": false,
      "inputs": [
        {
          "name": "_apartmentId",
          "type": "uint32"
        },
        {
          "name": "_message",
          "type": "string"
        }
      ],
      "name": "terminateContract",
      "outputs": [],
      "payable": false,
      "stateMutability": "nonpayable",
      "type": "function"
    }
  ],
  "bytecode": "0x608060405260008060006101000a81548163ffffffff021916908363ffffffff16021790555034801561003157600080fd5b50611aac806100416000396000f300608060405260043610610099576000357c0100000000000000000000000000000000000000000000000000000000900463ffffffff168063098b72b51461009e57806334745e681461030557806359a1dde21461037157806369dcdd58146103dd578063906da5a71461041057806390aae45514610489578063b83d481a14610511578063c05db1fa1461058a578063e6e45e5f14610715575b600080fd5b3480156100aa57600080fd5b506100cf600480360381019080803563ffffffff1690602001909291905050506107ee565b604051808d63ffffffff1663ffffffff1681526020018c73ffffffffffffffffffffffffffffffffffffffff1673ffffffffffffffffffffffffffffffffffffffff1681526020018b73ffffffffffffffffffffffffffffffffffffffff1673ffffffffffffffffffffffffffffffffffffffff1681526020018a63ffffffff1663ffffffff16815260200180602001806020018963ffffffff1663ffffffff1681526020018863ffffffff1663ffffffff168152602001806020018763ffffffff1663ffffffff1681526020018663ffffffff1663ffffffff1681526020018515151515815260200184810384528c818151815260200191508051906020019080838360005b838110156101f15780820151818401526020810190506101d6565b50505050905090810190601f16801561021e5780820380516001836020036101000a031916815260200191505b5084810383528b818151815260200191508051906020019080838360005b8381101561025757808201518184015260208101905061023c565b50505050905090810190601f1680156102845780820380516001836020036101000a031916815260200191505b50848103825288818151815260200191508051906020019080838360005b838110156102bd5780820151818401526020810190506102a2565b50505050905090810190601f1680156102ea5780820380516001836020036101000a031916815260200191505b509f5050505050505050505050505050505060405180910390f35b34801561031157600080fd5b5061031a610b05565b6040518080602001828103825283818151815260200191508051906020019060200280838360005b8381101561035d578082015181840152602081019050610342565b505050509050019250505060405180910390f35b34801561037d57600080fd5b50610386610bc6565b6040518080602001828103825283818151815260200191508051906020019060200280838360005b838110156103c95780820151818401526020810190506103ae565b505050509050019250505060405180910390f35b3480156103e957600080fd5b5061040e600480360381019080803563ffffffff169060200190929190505050610c87565b005b34801561041c57600080fd5b50610487600480360381019080803563ffffffff169060200190929190803590602001908201803590602001908080601f0160208091040260200160405190810160405280939291908181526020018383808284378201915050505050509192919290505050610e30565b005b34801561049557600080fd5b506104ba600480360381019080803563ffffffff169060200190929190505050611046565b6040518080602001828103825283818151815260200191508051906020019060200280838360005b838110156104fd5780820151818401526020810190506104e2565b505050509050019250505060405180910390f35b34801561051d57600080fd5b50610588600480360381019080803563ffffffff169060200190929190803590602001908201803590602001908080601f01602080910402602001604051908101604052809392919081815260200183838082843782019150505050505091929192905050506110e9565b005b34801561059657600080fd5b50610713600480360381019080803563ffffffff169060200190929190803590602001908201803590602001908080601f0160208091040260200160405190810160405280939291908181526020018383808284378201915050505050509192919290803590602001908201803590602001908080601f0160208091040260200160405190810160405280939291908181526020018383808284378201915050505050509192919290803563ffffffff169060200190929190803563ffffffff169060200190929190803590602001908201803590602001908080601f0160208091040260200160405190810160405280939291908181526020018383808284378201915050505050509192919290803563ffffffff169060200190929190803563ffffffff169060200190929190803590602001908201803590602001908080601f0160208091040260200160405190810160405280939291908181526020018383808284378201915050505050509192919290505050611239565b005b34801561072157600080fd5b50610746600480360381019080803563ffffffff1690602001909291905050506115b1565b604051808563ffffffff1663ffffffff1681526020018463ffffffff1663ffffffff16815260200180602001838152602001828103825284818151815260200191508051906020019080838360005b838110156107b0578082015181840152602081019050610795565b50505050905090810190601f1680156107dd5780820380516001836020036101000a031916815260200191505b509550505050505060405180910390f35b6000806000806060806000806060600080600080600460008f63ffffffff1663ffffffff16815260200190815260200160002090508060000160009054906101000a900463ffffffff168160000160049054906101000a900473ffffffffffffffffffffffffffffffffffffffff168260010160009054906101000a900473ffffffffffffffffffffffffffffffffffffffff168360010160149054906101000a900463ffffffff1684600201856003018660040160009054906101000a900463ffffffff168760040160049054906101000a900463ffffffff16886005018960060160009054906101000a900463ffffffff168a60060160049054906101000a900463ffffffff168b60060160089054906101000a900460ff16878054600181600116156101000203166002900480601f01602080910402602001604051908101604052809291908181526020018280546001816001161561010002031660029004801561099e5780601f106109735761010080835404028352916020019161099e565b820191906000526020600020905b81548152906001019060200180831161098157829003601f168201915b50505050509750868054600181600116156101000203166002900480601f016020809104026020016040519081016040528092919081815260200182805460018160011615610100020316600290048015610a3a5780601f10610a0f57610100808354040283529160200191610a3a565b820191906000526020600020905b815481529060010190602001808311610a1d57829003601f168201915b50505050509650838054600181600116156101000203166002900480601f016020809104026020016040519081016040528092919081815260200182805460018160011615610100020316600290048015610ad65780601f10610aab57610100808354040283529160200191610ad6565b820191906000526020600020905b815481529060010190602001808311610ab957829003601f168201915b505050505093509c509c509c509c509c509c509c509c509c509c509c509c505091939597999b5091939597999b565b6060600160003373ffffffffffffffffffffffffffffffffffffffff1673ffffffffffffffffffffffffffffffffffffffff168152602001908152602001600020805480602002602001604051908101604052809291908181526020018280548015610bbc57602002820191906000526020600020906000905b82829054906101000a900463ffffffff1663ffffffff1681526020019060040190602082600301049283019260010382029150808411610b7f5790505b5050505050905090565b6060600260003373ffffffffffffffffffffffffffffffffffffffff1673ffffffffffffffffffffffffffffffffffffffff168152602001908152602001600020805480602002602001604051908101604052809291908181526020018280548015610c7d57602002820191906000526020600020906000905b82829054906101000a900463ffffffff1663ffffffff1681526020019060040190602082600301049283019260010382029150808411610c405790505b5050505050905090565b60001515600460008363ffffffff1663ffffffff16815260200190815260200160002060060160089054906101000a900460ff1615151415610dee5733600460008363ffffffff1663ffffffff16815260200190815260200160002060010160006101000a81548173ffffffffffffffffffffffffffffffffffffffff021916908373ffffffffffffffffffffffffffffffffffffffff1602179055506001600460008363ffffffff1663ffffffff16815260200190815260200160002060060160086101000a81548160ff021916908315150217905550600260003373ffffffffffffffffffffffffffffffffffffffff1673ffffffffffffffffffffffffffffffffffffffff16815260200190815260200160002081908060018154018082558091505090600182039060005260206000209060089182820401919006600402909192909190916101000a81548163ffffffff021916908363ffffffff160217905550505b610e2d816040805190810160405280601c81526020017f546865206f776e657220617070726f766564207468652072656e742e000000008152506110e9565b50565b60606000806000600460008763ffffffff1663ffffffff16815260200190815260200160002060010160006101000a81548173ffffffffffffffffffffffffffffffffffffffff021916908373ffffffffffffffffffffffffffffffffffffffff1602179055506000600460008763ffffffff1663ffffffff16815260200190815260200160002060060160086101000a81548160ff021916908315150217905550600260003373ffffffffffffffffffffffffffffffffffffffff1673ffffffffffffffffffffffffffffffffffffffff168152602001908152602001600020805480602002602001604051908101604052809291908181526020018280548015610f8757602002820191906000526020600020906000905b82829054906101000a900463ffffffff1663ffffffff1681526020019060040190602082600301049283019260010382029150808411610f4a5790505b50505050509250600090505b8251811015610fd8578463ffffffff168382815181101515610fb157fe5b9060200190602002015163ffffffff161415610fcb578091505b8080600101915050610f93565b610fe283836116b9565b600260003373ffffffffffffffffffffffffffffffffffffffff1673ffffffffffffffffffffffffffffffffffffffff168152602001908152602001600020908051906020019061103492919061180f565b5061103f85856110e9565b5050505050565b6060600360008363ffffffff1663ffffffff1681526020019081526020016000208054806020026020016040519081016040528092919081815260200182805480156110dd57602002820191906000526020600020906000905b82829054906101000a900463ffffffff1663ffffffff16815260200190600401906020826003010492830192600103820291508084116110a05790505b50505050509050919050565b60006110f36118bf565b6110fb6117cf565b91506080604051908101604052808363ffffffff1681526020018563ffffffff168152602001848152602001428152509050600360008563ffffffff1663ffffffff16815260200190815260200160002082908060018154018082558091505090600182039060005260206000209060089182820401919006600402909192909190916101000a81548163ffffffff021916908363ffffffff1602179055505080600560008463ffffffff1663ffffffff16815260200190815260200160002060008201518160000160006101000a81548163ffffffff021916908363ffffffff16021790555060208201518160000160046101000a81548163ffffffff021916908363ffffffff16021790555060408201518160010190805190602001906112259291906118f4565b506060820151816002015590505050505050565b6000611243611974565b61124b6117cf565b9150610180604051908101604052808363ffffffff1681526020013373ffffffffffffffffffffffffffffffffffffffff168152602001600073ffffffffffffffffffffffffffffffffffffffff1681526020018c63ffffffff1681526020018b81526020018a81526020018963ffffffff1681526020018863ffffffff1681526020018781526020018663ffffffff1681526020018563ffffffff168152602001600015158152509050600160003373ffffffffffffffffffffffffffffffffffffffff1673ffffffffffffffffffffffffffffffffffffffff16815260200190815260200160002082908060018154018082558091505090600182039060005260206000209060089182820401919006600402909192909190916101000a81548163ffffffff021916908363ffffffff1602179055505080600460008463ffffffff1663ffffffff16815260200190815260200160002060008201518160000160006101000a81548163ffffffff021916908363ffffffff16021790555060208201518160000160046101000a81548173ffffffffffffffffffffffffffffffffffffffff021916908373ffffffffffffffffffffffffffffffffffffffff16021790555060408201518160010160006101000a81548173ffffffffffffffffffffffffffffffffffffffff021916908373ffffffffffffffffffffffffffffffffffffffff16021790555060608201518160010160146101000a81548163ffffffff021916908363ffffffff160217905550608082015181600201908051906020019061149c9291906118f4565b5060a08201518160030190805190602001906114b99291906118f4565b5060c08201518160040160006101000a81548163ffffffff021916908363ffffffff16021790555060e08201518160040160046101000a81548163ffffffff021916908363ffffffff1602179055506101008201518160050190805190602001906115259291906118f4565b506101208201518160060160006101000a81548163ffffffff021916908363ffffffff1602179055506101408201518160060160046101000a81548163ffffffff021916908363ffffffff1602179055506101608201518160060160086101000a81548160ff0219169083151502179055509050506115a482846110e9565b5050505050505050505050565b6000806060600080600560008763ffffffff1663ffffffff16815260200190815260200160002090508060000160009054906101000a900463ffffffff168160000160049054906101000a900463ffffffff16826001018360020154818054600181600116156101000203166002900480601f0160208091040260200160405190810160405280929190818152602001828054600181600116156101000203166002900480156116a25780601f10611677576101008083540402835291602001916116a2565b820191906000526020600020905b81548152906001019060200180831161168557829003601f168201915b505050505091509450945094509450509193509193565b60608060008451841015156116cd576117c7565b60018551036040519080825280602002602001820160405280156117005781602001602082028038833980820191505090505b509150600090505b81518110156117bf5783811415801561172057508381105b1561176c57848181518110151561173357fe5b90602001906020020151828281518110151561174b57fe5b9060200190602002019063ffffffff16908163ffffffff16815250506117b2565b846001820181518110151561177d57fe5b90602001906020020151828281518110151561179557fe5b9060200190602002019063ffffffff16908163ffffffff16815250505b8080600101915050611708565b606094508192505b505092915050565b600080600081819054906101000a900463ffffffff168092919060010191906101000a81548163ffffffff021916908363ffffffff160217905550905090565b828054828255906000526020600020906007016008900481019282156118ae5791602002820160005b8382111561187c57835183826101000a81548163ffffffff021916908363ffffffff1602179055509260200192600401602081600301049283019260010302611838565b80156118ac5782816101000a81549063ffffffff021916905560040160208160030104928301926001030261187c565b505b5090506118bb9190611a28565b5090565b608060405190810160405280600063ffffffff168152602001600063ffffffff16815260200160608152602001600081525090565b828054600181600116156101000203166002900490600052602060002090601f016020900481019282601f1061193557805160ff1916838001178555611963565b82800160010185558215611963579182015b82811115611962578251825591602001919060010190611947565b5b5090506119709190611a5b565b5090565b61018060405190810160405280600063ffffffff168152602001600073ffffffffffffffffffffffffffffffffffffffff168152602001600073ffffffffffffffffffffffffffffffffffffffff168152602001600063ffffffff1681526020016060815260200160608152602001600063ffffffff168152602001600063ffffffff16815260200160608152602001600063ffffffff168152602001600063ffffffff1681526020016000151581525090565b611a5891905b80821115611a5457600081816101000a81549063ffffffff021916905550600101611a2e565b5090565b90565b611a7d91905b80821115611a79576000816000905550600101611a61565b5090565b905600a165627a7a7230582086ce6c273e447ab5bcde71d2b2450f99b8cd53923d391ca40d573b5d21a25e1d0029",
  "source": "// solium-disable linebreak-style\r\n// solium-disable indentation\r\n// solium-disable security/no-assign-params\r\npragma solidity ^0.4.23;\r\n\r\ncontract ApartmentContract {\r\n    uint32 private apartmentCounter = 0;\r\n    mapping(address => uint32[]) apartments;\r\n    mapping(address => uint32[]) rentedApartments;\r\n    mapping(uint32 => uint32[]) apartmentTransactionMappings;\r\n    \r\n    mapping(uint32 => ApartmentDetail) apartmentDetails;\r\n    mapping(uint32 => ApartmentTransaction) apartmentTransactions;\r\n\r\n    constructor() public {\r\n    }\r\n\r\n    struct ApartmentDetail {\r\n        uint32 id;\r\n        address owner;\r\n        address tenant;\r\n        uint32 postCode;\r\n        string city;\r\n        string street;\r\n        uint32 houseNumber;\r\n        uint32 floor;\r\n        string description;\r\n        uint32 rent;\r\n        uint32 deposit;\r\n        bool isRented;\r\n    }\r\n\r\n    struct ApartmentTransaction {\r\n        uint32 id;\r\n        uint32 apartmentId;\r\n        string message;\r\n        uint timestamp;\r\n    }\r\n\r\n    function getId() private returns(uint32) {\r\n        return apartmentCounter++;\r\n    }\r\n\r\n    // Create functions.\r\n    function createApartment(\r\n        uint32 _postCode, string _city, string _street,\r\n        uint32 _houseNumber, uint32 _floor, string _description, uint32 _rent,\r\n        uint32 _deposit, string _transactionMessage) public {\r\n\r\n        uint32 apartmentId = getId();\r\n        ApartmentDetail memory apartment = ApartmentDetail(\r\n            apartmentId, msg.sender, address(0),\r\n            _postCode, _city, _street, _houseNumber, _floor, _description, _rent, _deposit, false);\r\n        apartments[msg.sender].push(apartmentId);\r\n        apartmentDetails[apartmentId] = apartment;\r\n        createTransaction(apartmentId, _transactionMessage);\r\n    }\r\n\r\n    function createTransaction(uint32 _apartmentId, string _transactionMessage) public {\r\n        uint32 transactionId = getId();\r\n        ApartmentTransaction memory transaction = ApartmentTransaction(transactionId, _apartmentId, _transactionMessage, now);\r\n        apartmentTransactionMappings[_apartmentId].push(transactionId);\r\n        apartmentTransactions[transactionId] = transaction;\r\n    }\r\n\r\n    // Read functions.\r\n    function getApartmentIds() public view returns(uint32[]) {\r\n        return apartments[msg.sender];\r\n    }\r\n\r\n    function getRentedApartments() public view returns(uint32[]) {\r\n        return rentedApartments[msg.sender];\r\n    }\r\n\r\n    function getApartmentById(uint32 apartmentId) public view returns(uint32 _id, address _owner, address _tenant,\r\n        uint32 _postCode, string _city, string _street,\r\n        uint32 _houseNumber, uint32 _floor, string _description, uint32 _rent, uint32 _deposit, bool _isRented) {\r\n        ApartmentDetail storage a = apartmentDetails[apartmentId];\r\n        return (a.id, a.owner, a.tenant, a.postCode, a.city, a.street, a.houseNumber, a.floor, a.description, a.rent, a.deposit, a.isRented);\r\n    }\r\n\r\n    function getTransactionIds(uint32 apartmentId) public view returns(uint32[]) {\r\n        return apartmentTransactionMappings[apartmentId];\r\n    }\r\n\r\n    function getTransactionById(uint32 transactionId) public view returns(uint32 _id, uint32 _apartmentId, string _message, uint _timestamp) {\r\n        ApartmentTransaction storage t = apartmentTransactions[transactionId];\r\n        return (t.id, t.apartmentId, t.message, t.timestamp);\r\n    }\r\n\r\n    // Update functions.\r\n    function updateApartment(uint32 _apartmentId) public {\r\n        if (apartmentDetails[_apartmentId].isRented == false) {\r\n            apartmentDetails[_apartmentId].tenant = msg.sender;\r\n            apartmentDetails[_apartmentId].isRented = true;\r\n            rentedApartments[msg.sender].push(_apartmentId);\r\n        }\r\n        createTransaction(_apartmentId, \"The owner approved the rent.\");\r\n    }\r\n\r\n    function terminateContract(uint32 _apartmentId, string _message) public {\r\n        apartmentDetails[_apartmentId].tenant = address(0);\r\n        apartmentDetails[_apartmentId].isRented = false;\r\n        uint32[] memory _apartments = rentedApartments[msg.sender];\r\n        uint _apartmentIndex;\r\n        for (uint i = 0; i < _apartments.length; i++) {\r\n            if (_apartments[i] == _apartmentId) {\r\n                _apartmentIndex = i;\r\n            }\r\n        }\r\n        rentedApartments[msg.sender] = remove(_apartments, _apartmentIndex);\r\n        createTransaction(_apartmentId, _message);\r\n    }\r\n\r\n    function remove(uint32[] array, uint index) internal pure returns(uint32[] value) {\r\n        if (index >= array.length) return;\r\n\r\n        uint32[] memory arrayNew = new uint32[](array.length-1);\r\n        for (uint i = 0; i<arrayNew.length; i++){\r\n            if(i != index && i<index){\r\n                arrayNew[i] = array[i];\r\n            } else {\r\n                arrayNew[i] = array[i+1];\r\n            }\r\n        }\r\n        delete array;\r\n        return arrayNew;\r\n    }\r\n}",
  "sourcePath": "C:\\Users\\david.munkacsi\\pj-ods\\ethereum\\contracts\\ApartmentContract.sol",
  "compiler": {
    "name": "solc",
    "version": "0.4.24+commit.e67f0147.Emscripten.clang"
  },
  "schemaVersion": "2.0.1",
  "updatedAt": "2019-01-30T13:14:02.550Z"
}